{
  "_format": "hh-sol-artifact-1",
  "contractName": "MyTokenGenerator",
  "sourceName": "contracts/MyTokenGenerator.sol",
  "abi": [
    {
      "anonymous": false,
      "inputs": [
        {
          "indexed": true,
          "internalType": "contract MyToken",
          "name": "myToken",
          "type": "address"
        },
        {
          "indexed": true,
          "internalType": "address",
          "name": "owner",
          "type": "address"
        }
      ],
      "name": "MyTokenCreated",
      "type": "event"
    },
    {
      "inputs": [
        {
          "internalType": "string",
          "name": "name",
          "type": "string"
        },
        {
          "internalType": "string",
          "name": "symbol",
          "type": "string"
        },
        {
          "internalType": "uint256",
          "name": "amount",
          "type": "uint256"
        }
      ],
      "name": "createMyToken",
      "outputs": [],
      "stateMutability": "nonpayable",
      "type": "function"
    },
    {
      "inputs": [
        {
          "internalType": "uint256",
          "name": "limit",
          "type": "uint256"
        },
        {
          "internalType": "uint256",
          "name": "offset",
          "type": "uint256"
        }
      ],
      "name": "myTokens",
      "outputs": [
        {
          "internalType": "contract MyToken[]",
          "name": "coll",
          "type": "address[]"
        }
      ],
      "stateMutability": "view",
      "type": "function"
    },
    {
      "inputs": [],
      "name": "myTokensCount",
      "outputs": [
        {
          "internalType": "uint256",
          "name": "",
          "type": "uint256"
        }
      ],
      "stateMutability": "view",
      "type": "function"
    }
  ],
  "bytecode": "0x608060405234801561001057600080fd5b50613db5806100206000396000f3fe60806040523480156200001157600080fd5b5060043610620000465760003560e01c80636479f243146200004b5780638eeccfc5146200006b578063f8e7df3f14620000a1575b600080fd5b62000069600480360381019062000063919062000538565b620000c3565b005b620000896004803603810190620000839190620005d2565b620001c9565b60405162000098919062000761565b60405180910390f35b620000ab6200036d565b604051620000ba919062000796565b60405180910390f35b600083833384604051620000d79062000379565b620000e6949392919062000861565b604051809103906000f08015801562000103573d6000803e3d6000fd5b5090506000819080600181540180825580915050600190039060005260206000200160009091909190916101000a81548173ffffffffffffffffffffffffffffffffffffffff021916908373ffffffffffffffffffffffffffffffffffffffff1602179055503373ffffffffffffffffffffffffffffffffffffffff168173ffffffffffffffffffffffffffffffffffffffff167fe8cf188f53a0fb2edbb26ce715ac0f54c9a7543b23abd6363a3625b1f8a4654860405160405180910390a350505050565b6060620001d56200036d565b8211156200021a576040517f08c379a000000000000000000000000000000000000000000000000000000000815260040162000211906200090c565b60405180910390fd5b600082620002276200036d565b6200023391906200095d565b905083811062000244578362000246565b805b905060328110620002595760326200025b565b805b90508067ffffffffffffffff8111156200027a5762000279620003b6565b5b604051908082528060200260200182016040528015620002a95781602001602082028036833780820191505090505b50915060005b81811015620003655760008185620002c8919062000998565b81548110620002dc57620002db620009d3565b5b9060005260206000200160009054906101000a900473ffffffffffffffffffffffffffffffffffffffff168382815181106200031d576200031c620009d3565b5b602002602001019073ffffffffffffffffffffffffffffffffffffffff16908173ffffffffffffffffffffffffffffffffffffffff16815250508080600101915050620002af565b505092915050565b60008080549050905090565b61337d8062000a0383390190565b6000604051905090565b600080fd5b600080fd5b600080fd5b600080fd5b6000601f19601f8301169050919050565b7f4e487b7100000000000000000000000000000000000000000000000000000000600052604160045260246000fd5b620003f082620003a5565b810181811067ffffffffffffffff82111715620004125762000411620003b6565b5b80604052505050565b60006200042762000387565b9050620004358282620003e5565b919050565b600067ffffffffffffffff821115620004585762000457620003b6565b5b6200046382620003a5565b9050602081019050919050565b82818337600083830152505050565b60006200049662000490846200043a565b6200041b565b905082815260208101848484011115620004b557620004b4620003a0565b5b620004c284828562000470565b509392505050565b600082601f830112620004e257620004e16200039b565b5b8135620004f48482602086016200047f565b91505092915050565b6000819050919050565b6200051281620004fd565b81146200051e57600080fd5b50565b600081359050620005328162000507565b92915050565b60008060006060848603121562000554576200055362000391565b5b600084013567ffffffffffffffff81111562000575576200057462000396565b5b6200058386828701620004ca565b935050602084013567ffffffffffffffff811115620005a757620005a662000396565b5b620005b586828701620004ca565b9250506040620005c88682870162000521565b9150509250925092565b60008060408385031215620005ec57620005eb62000391565b5b6000620005fc8582860162000521565b92505060206200060f8582860162000521565b9150509250929050565b600081519050919050565b600082825260208201905092915050565b6000819050602082019050919050565b600073ffffffffffffffffffffffffffffffffffffffff82169050919050565b6000819050919050565b6000620006906200068a620006848462000645565b62000665565b62000645565b9050919050565b6000620006a4826200066f565b9050919050565b6000620006b88262000697565b9050919050565b620006ca81620006ab565b82525050565b6000620006de8383620006bf565b60208301905092915050565b6000602082019050919050565b6000620007048262000619565b62000710818562000624565b93506200071d8362000635565b8060005b8381101562000754578151620007388882620006d0565b97506200074583620006ea565b92505060018101905062000721565b5085935050505092915050565b600060208201905081810360008301526200077d8184620006f7565b905092915050565b6200079081620004fd565b82525050565b6000602082019050620007ad600083018462000785565b92915050565b600081519050919050565b600082825260208201905092915050565b60005b83811015620007ef578082015181840152602081019050620007d2565b60008484015250505050565b60006200080882620007b3565b620008148185620007be565b935062000826818560208601620007cf565b6200083181620003a5565b840191505092915050565b6000620008498262000645565b9050919050565b6200085b816200083c565b82525050565b600060808201905081810360008301526200087d8187620007fb565b90508181036020830152620008938186620007fb565b9050620008a4604083018562000850565b620008b3606083018462000785565b95945050505050565b7f6f6666736574206f7574206f6620626f756e6473000000000000000000000000600082015250565b6000620008f4601483620007be565b91506200090182620008bc565b602082019050919050565b600060208201905081810360008301526200092781620008e5565b9050919050565b7f4e487b7100000000000000000000000000000000000000000000000000000000600052601160045260246000fd5b60006200096a82620004fd565b91506200097783620004fd565b92508282039050818111156200099257620009916200092e565b5b92915050565b6000620009a582620004fd565b9150620009b283620004fd565b9250828201905080821115620009cd57620009cc6200092e565b5b92915050565b7f4e487b7100000000000000000000000000000000000000000000000000000000600052603260045260246000fdfe6101606040523480156200001257600080fd5b506040516200337d3803806200337d8339818101604052810190620000389190620009f0565b83806040518060400160405280600181526020017f3100000000000000000000000000000000000000000000000000000000000000815250848787816003908162000084919062000ce1565b50806004908162000096919062000ce1565b505050600073ffffffffffffffffffffffffffffffffffffffff168173ffffffffffffffffffffffffffffffffffffffff16036200010e5760006040517f1e4fbdf700000000000000000000000000000000000000000000000000000000815260040162000105919062000dd9565b60405180910390fd5b6200011f816200026d60201b60201c565b50620001366006836200033360201b90919060201c565b6101208181525050620001546007826200033360201b90919060201c565b6101408181525050818051906020012060e08181525050808051906020012061010081815250504660a08181525050620001936200038b60201b60201c565b608081815250503073ffffffffffffffffffffffffffffffffffffffff1660c08173ffffffffffffffffffffffffffffffffffffffff16815250505050506000600960006101000a81548160ff02191690831515021790555083600a9081620001fd919062000ce1565b5082600b90816200020f919062000ce1565b5081600c60006101000a81548173ffffffffffffffffffffffffffffffffffffffff021916908373ffffffffffffffffffffffffffffffffffffffff160217905550620002638282620003e860201b60201c565b505050506200105b565b6000600560009054906101000a900473ffffffffffffffffffffffffffffffffffffffff16905081600560006101000a81548173ffffffffffffffffffffffffffffffffffffffff021916908373ffffffffffffffffffffffffffffffffffffffff1602179055508173ffffffffffffffffffffffffffffffffffffffff168173ffffffffffffffffffffffffffffffffffffffff167f8be0079c531659141344cd1fd0a4f28419497f9722a3daafe3b4186f6b6457e060405160405180910390a35050565b6000602083511015620003595762000351836200047560201b60201c565b905062000385565b826200036b83620004e260201b60201c565b60000190816200037c919062000ce1565b5060ff60001b90505b92915050565b60007f8b73c3c69bb8fe3d512ecc4cf759cc79239f7b179b0ffacaa9a75d522b39400f60e051610100514630604051602001620003cd95949392919062000e22565b60405160208183030381529060405280519060200120905090565b600073ffffffffffffffffffffffffffffffffffffffff168273ffffffffffffffffffffffffffffffffffffffff16036200045d5760006040517fec442f0500000000000000000000000000000000000000000000000000000000815260040162000454919062000dd9565b60405180910390fd5b6200047160008383620004ec60201b60201c565b5050565b600080829050601f81511115620004c557826040517f305a27a9000000000000000000000000000000000000000000000000000000008152600401620004bc919062000ed1565b60405180910390fd5b805181620004d39062000f27565b60001c1760001b915050919050565b6000819050919050565b620004ff8383836200050460201b60201c565b505050565b620005146200052c60201b60201c565b620005278383836200057660201b60201c565b505050565b6200053c620007a660201b60201c565b1562000574576040517fd93c066500000000000000000000000000000000000000000000000000000000815260040160405180910390fd5b565b600073ffffffffffffffffffffffffffffffffffffffff168373ffffffffffffffffffffffffffffffffffffffff1603620005cc578060026000828254620005bf919062000fc6565b92505081905550620006a2565b60008060008573ffffffffffffffffffffffffffffffffffffffff1673ffffffffffffffffffffffffffffffffffffffff168152602001908152602001600020549050818110156200065b578381836040517fe450d38c000000000000000000000000000000000000000000000000000000008152600401620006529392919062001001565b60405180910390fd5b8181036000808673ffffffffffffffffffffffffffffffffffffffff1673ffffffffffffffffffffffffffffffffffffffff16815260200190815260200160002081905550505b600073ffffffffffffffffffffffffffffffffffffffff168273ffffffffffffffffffffffffffffffffffffffff1603620006ed57806002600082825403925050819055506200073a565b806000808473ffffffffffffffffffffffffffffffffffffffff1673ffffffffffffffffffffffffffffffffffffffff168152602001908152602001600020600082825401925050819055505b8173ffffffffffffffffffffffffffffffffffffffff168373ffffffffffffffffffffffffffffffffffffffff167fddf252ad1be2c89b69c2b068fc378daa952ba7f163c4a11628f55a4df523b3ef836040516200079991906200103e565b60405180910390a3505050565b6000600960009054906101000a900460ff16905090565b6000604051905090565b600080fd5b600080fd5b600080fd5b600080fd5b6000601f19601f8301169050919050565b7f4e487b7100000000000000000000000000000000000000000000000000000000600052604160045260246000fd5b6200082682620007db565b810181811067ffffffffffffffff82111715620008485762000847620007ec565b5b80604052505050565b60006200085d620007bd565b90506200086b82826200081b565b919050565b600067ffffffffffffffff8211156200088e576200088d620007ec565b5b6200089982620007db565b9050602081019050919050565b60005b83811015620008c6578082015181840152602081019050620008a9565b60008484015250505050565b6000620008e9620008e38462000870565b62000851565b905082815260208101848484011115620009085762000907620007d6565b5b62000915848285620008a6565b509392505050565b600082601f830112620009355762000934620007d1565b5b815162000947848260208601620008d2565b91505092915050565b600073ffffffffffffffffffffffffffffffffffffffff82169050919050565b60006200097d8262000950565b9050919050565b6200098f8162000970565b81146200099b57600080fd5b50565b600081519050620009af8162000984565b92915050565b6000819050919050565b620009ca81620009b5565b8114620009d657600080fd5b50565b600081519050620009ea81620009bf565b92915050565b6000806000806080858703121562000a0d5762000a0c620007c7565b5b600085015167ffffffffffffffff81111562000a2e5762000a2d620007cc565b5b62000a3c878288016200091d565b945050602085015167ffffffffffffffff81111562000a605762000a5f620007cc565b5b62000a6e878288016200091d565b935050604062000a81878288016200099e565b925050606062000a9487828801620009d9565b91505092959194509250565b600081519050919050565b7f4e487b7100000000000000000000000000000000000000000000000000000000600052602260045260246000fd5b6000600282049050600182168062000af357607f821691505b60208210810362000b095762000b0862000aab565b5b50919050565b60008190508160005260206000209050919050565b60006020601f8301049050919050565b600082821b905092915050565b60006008830262000b737fffffffffffffffffffffffffffffffffffffffffffffffffffffffffffffffff8262000b34565b62000b7f868362000b34565b95508019841693508086168417925050509392505050565b6000819050919050565b600062000bc262000bbc62000bb684620009b5565b62000b97565b620009b5565b9050919050565b6000819050919050565b62000bde8362000ba1565b62000bf662000bed8262000bc9565b84845462000b41565b825550505050565b600090565b62000c0d62000bfe565b62000c1a81848462000bd3565b505050565b5b8181101562000c425762000c3660008262000c03565b60018101905062000c20565b5050565b601f82111562000c915762000c5b8162000b0f565b62000c668462000b24565b8101602085101562000c76578190505b62000c8e62000c858562000b24565b83018262000c1f565b50505b505050565b600082821c905092915050565b600062000cb66000198460080262000c96565b1980831691505092915050565b600062000cd1838362000ca3565b9150826002028217905092915050565b62000cec8262000aa0565b67ffffffffffffffff81111562000d085762000d07620007ec565b5b62000d14825462000ada565b62000d2182828562000c46565b600060209050601f83116001811462000d59576000841562000d44578287015190505b62000d50858262000cc3565b86555062000dc0565b601f19841662000d698662000b0f565b60005b8281101562000d935784890151825560018201915060208501945060208101905062000d6c565b8683101562000db3578489015162000daf601f89168262000ca3565b8355505b6001600288020188555050505b505050505050565b62000dd38162000970565b82525050565b600060208201905062000df0600083018462000dc8565b92915050565b6000819050919050565b62000e0b8162000df6565b82525050565b62000e1c81620009b5565b82525050565b600060a08201905062000e39600083018862000e00565b62000e48602083018762000e00565b62000e57604083018662000e00565b62000e66606083018562000e11565b62000e75608083018462000dc8565b9695505050505050565b600082825260208201905092915050565b600062000e9d8262000aa0565b62000ea9818562000e7f565b935062000ebb818560208601620008a6565b62000ec681620007db565b840191505092915050565b6000602082019050818103600083015262000eed818462000e90565b905092915050565b600081519050919050565b6000819050602082019050919050565b600062000f1e825162000df6565b80915050919050565b600062000f348262000ef5565b8262000f408462000f00565b905062000f4d8162000f10565b9250602082101562000f905762000f8b7fffffffffffffffffffffffffffffffffffffffffffffffffffffffffffffffff8360200360080262000b34565b831692505b5050919050565b7f4e487b7100000000000000000000000000000000000000000000000000000000600052601160045260246000fd5b600062000fd382620009b5565b915062000fe083620009b5565b925082820190508082111562000ffb5762000ffa62000f97565b5b92915050565b600060608201905062001018600083018662000dc8565b62001027602083018562000e11565b62001036604083018462000e11565b949350505050565b600060208201905062001055600083018462000e11565b92915050565b60805160a05160c05160e0516101005161012051610140516122c7620010b6600039600061101801526000610fdd01526000611318015260006112f701526000610bc101526000610c1701526000610c4001526122c76000f3fe608060405234801561001057600080fd5b506004361061014d5760003560e01c8063715018a6116100c357806395d89b411161007c57806395d89b411461035c5780639dc29fac1461037a578063a9059cbb14610396578063d505accf146103c6578063dd62ed3e146103e2578063f2fde38b146104125761014d565b8063715018a6146102ba57806379cc6790146102c45780637ecebe00146102e05780638456cb591461031057806384b0196e1461031a5780638da5cb5b1461033e5761014d565b80633644e515116101155780633644e5151461020c5780633f4ba83a1461022a57806340c10f191461023457806342966c68146102505780635c975abb1461026c57806370a082311461028a5761014d565b806306fdde0314610152578063095ea7b31461017057806318160ddd146101a057806323b872dd146101be578063313ce567146101ee575b600080fd5b61015a61042e565b6040516101679190611ac3565b60405180910390f35b61018a60048036038101906101859190611b7e565b6104c0565b6040516101979190611bd9565b60405180910390f35b6101a86104e3565b6040516101b59190611c03565b60405180910390f35b6101d860048036038101906101d39190611c1e565b6104ed565b6040516101e59190611bd9565b60405180910390f35b6101f661051c565b6040516102039190611c8d565b60405180910390f35b610214610525565b6040516102219190611cc1565b60405180910390f35b610232610534565b005b61024e60048036038101906102499190611b7e565b610546565b005b61026a60048036038101906102659190611cdc565b61055c565b005b610274610570565b6040516102819190611bd9565b60405180910390f35b6102a4600480360381019061029f9190611d09565b610587565b6040516102b19190611c03565b60405180910390f35b6102c26105cf565b005b6102de60048036038101906102d99190611b7e565b6105e3565b005b6102fa60048036038101906102f59190611d09565b610603565b6040516103079190611c03565b60405180910390f35b610318610615565b005b610322610627565b6040516103359796959493929190611e3e565b60405180910390f35b6103466106d1565b6040516103539190611ec2565b60405180910390f35b6103646106fb565b6040516103719190611ac3565b60405180910390f35b610394600480360381019061038f9190611b7e565b61078d565b005b6103b060048036038101906103ab9190611b7e565b6107a3565b6040516103bd9190611bd9565b60405180910390f35b6103e060048036038101906103db9190611f35565b6107c6565b005b6103fc60048036038101906103f79190611fd7565b61090e565b6040516104099190611c03565b60405180910390f35b61042c60048036038101906104279190611d09565b610995565b005b60606003805461043d90612046565b80601f016020809104026020016040519081016040528092919081815260200182805461046990612046565b80156104b65780601f1061048b576101008083540402835291602001916104b6565b820191906000526020600020905b81548152906001019060200180831161049957829003601f168201915b5050505050905090565b6000806104cb610a1b565b90506104d8818585610a23565b600191505092915050565b6000600254905090565b6000806104f8610a1b565b9050610505858285610a35565b610510858585610ac9565b60019150509392505050565b60006012905090565b600061052f610bbd565b905090565b61053c610c74565b610544610cfb565b565b61054e610c74565b6105588282610d5e565b5050565b61056d610567610a1b565b82610de0565b50565b6000600960009054906101000a900460ff16905090565b60008060008373ffffffffffffffffffffffffffffffffffffffff1673ffffffffffffffffffffffffffffffffffffffff168152602001908152602001600020549050919050565b6105d7610c74565b6105e16000610e62565b565b6105f5826105ef610a1b565b83610a35565b6105ff8282610de0565b5050565b600061060e82610f28565b9050919050565b61061d610c74565b610625610f71565b565b60006060806000806000606061063b610fd4565b61064361100f565b46306000801b600067ffffffffffffffff81111561066457610663612077565b5b6040519080825280602002602001820160405280156106925781602001602082028036833780820191505090505b507f0f00000000000000000000000000000000000000000000000000000000000000959493929190965096509650965096509650965090919293949596565b6000600560009054906101000a900473ffffffffffffffffffffffffffffffffffffffff16905090565b60606004805461070a90612046565b80601f016020809104026020016040519081016040528092919081815260200182805461073690612046565b80156107835780601f1061075857610100808354040283529160200191610783565b820191906000526020600020905b81548152906001019060200180831161076657829003601f168201915b5050505050905090565b610795610c74565b61079f8282610de0565b5050565b6000806107ae610a1b565b90506107bb818585610ac9565b600191505092915050565b8342111561080b57836040517f627913020000000000000000000000000000000000000000000000000000000081526004016108029190611c03565b60405180910390fd5b60007f6e71edae12b1b97f4d1f60370fef10105fa2faae0126114a169c64845d6126c988888861083a8c61104a565b89604051602001610850969594939291906120a6565b6040516020818303038152906040528051906020012090506000610873826110a1565b90506000610883828787876110bb565b90508973ffffffffffffffffffffffffffffffffffffffff168173ffffffffffffffffffffffffffffffffffffffff16146108f757808a6040517f4b800e460000000000000000000000000000000000000000000000000000000081526004016108ee929190612107565b60405180910390fd5b6109028a8a8a610a23565b50505050505050505050565b6000600160008473ffffffffffffffffffffffffffffffffffffffff1673ffffffffffffffffffffffffffffffffffffffff16815260200190815260200160002060008373ffffffffffffffffffffffffffffffffffffffff1673ffffffffffffffffffffffffffffffffffffffff16815260200190815260200160002054905092915050565b61099d610c74565b600073ffffffffffffffffffffffffffffffffffffffff168173ffffffffffffffffffffffffffffffffffffffff1603610a0f5760006040517f1e4fbdf7000000000000000000000000000000000000000000000000000000008152600401610a069190611ec2565b60405180910390fd5b610a1881610e62565b50565b600033905090565b610a3083838360016110eb565b505050565b6000610a41848461090e565b90507fffffffffffffffffffffffffffffffffffffffffffffffffffffffffffffffff8114610ac35781811015610ab3578281836040517ffb8f41b2000000000000000000000000000000000000000000000000000000008152600401610aaa93929190612130565b60405180910390fd5b610ac2848484840360006110eb565b5b50505050565b600073ffffffffffffffffffffffffffffffffffffffff168373ffffffffffffffffffffffffffffffffffffffff1603610b3b5760006040517f96c6fd1e000000000000000000000000000000000000000000000000000000008152600401610b329190611ec2565b60405180910390fd5b600073ffffffffffffffffffffffffffffffffffffffff168273ffffffffffffffffffffffffffffffffffffffff1603610bad5760006040517fec442f05000000000000000000000000000000000000000000000000000000008152600401610ba49190611ec2565b60405180910390fd5b610bb88383836112c2565b505050565b60007f000000000000000000000000000000000000000000000000000000000000000073ffffffffffffffffffffffffffffffffffffffff163073ffffffffffffffffffffffffffffffffffffffff16148015610c3957507f000000000000000000000000000000000000000000000000000000000000000046145b15610c66577f00000000000000000000000000000000000000000000000000000000000000009050610c71565b610c6e6112d2565b90505b90565b610c7c610a1b565b73ffffffffffffffffffffffffffffffffffffffff16610c9a6106d1565b73ffffffffffffffffffffffffffffffffffffffff1614610cf957610cbd610a1b565b6040517f118cdaa7000000000000000000000000000000000000000000000000000000008152600401610cf09190611ec2565b60405180910390fd5b565b610d03611368565b6000600960006101000a81548160ff0219169083151502179055507f5db9ee0a495bf2e6ff9c91a7834c1ba4fdd244a5e8aa4e537bd38aeae4b073aa610d47610a1b565b604051610d549190611ec2565b60405180910390a1565b600073ffffffffffffffffffffffffffffffffffffffff168273ffffffffffffffffffffffffffffffffffffffff1603610dd05760006040517fec442f05000000000000000000000000000000000000000000000000000000008152600401610dc79190611ec2565b60405180910390fd5b610ddc600083836112c2565b5050565b600073ffffffffffffffffffffffffffffffffffffffff168273ffffffffffffffffffffffffffffffffffffffff1603610e525760006040517f96c6fd1e000000000000000000000000000000000000000000000000000000008152600401610e499190611ec2565b60405180910390fd5b610e5e826000836112c2565b5050565b6000600560009054906101000a900473ffffffffffffffffffffffffffffffffffffffff16905081600560006101000a81548173ffffffffffffffffffffffffffffffffffffffff021916908373ffffffffffffffffffffffffffffffffffffffff1602179055508173ffffffffffffffffffffffffffffffffffffffff168173ffffffffffffffffffffffffffffffffffffffff167f8be0079c531659141344cd1fd0a4f28419497f9722a3daafe3b4186f6b6457e060405160405180910390a35050565b6000600860008373ffffffffffffffffffffffffffffffffffffffff1673ffffffffffffffffffffffffffffffffffffffff168152602001908152602001600020549050919050565b610f796113a8565b6001600960006101000a81548160ff0219169083151502179055507f62e78cea01bee320cd4e420270b5ea74000d11b0c9f74754ebdbfc544b05a258610fbd610a1b565b604051610fca9190611ec2565b60405180910390a1565b606061100a60067f00000000000000000000000000000000000000000000000000000000000000006113e990919063ffffffff16565b905090565b606061104560077f00000000000000000000000000000000000000000000000000000000000000006113e990919063ffffffff16565b905090565b6000600860008373ffffffffffffffffffffffffffffffffffffffff1673ffffffffffffffffffffffffffffffffffffffff1681526020019081526020016000206000815480929190600101919050559050919050565b60006110b46110ae610bbd565b83611499565b9050919050565b6000806000806110cd888888886114da565b9250925092506110dd82826115ce565b829350505050949350505050565b600073ffffffffffffffffffffffffffffffffffffffff168473ffffffffffffffffffffffffffffffffffffffff160361115d5760006040517fe602df050000000000000000000000000000000000000000000000000000000081526004016111549190611ec2565b60405180910390fd5b600073ffffffffffffffffffffffffffffffffffffffff168373ffffffffffffffffffffffffffffffffffffffff16036111cf5760006040517f94280d620000000000000000000000000000000000000000000000000000000081526004016111c69190611ec2565b60405180910390fd5b81600160008673ffffffffffffffffffffffffffffffffffffffff1673ffffffffffffffffffffffffffffffffffffffff16815260200190815260200160002060008573ffffffffffffffffffffffffffffffffffffffff1673ffffffffffffffffffffffffffffffffffffffff1681526020019081526020016000208190555080156112bc578273ffffffffffffffffffffffffffffffffffffffff168473ffffffffffffffffffffffffffffffffffffffff167f8c5be1e5ebec7d5bd14f71427d1e84f3dd0314c0f7b2291e5b200ac8c7c3b925846040516112b39190611c03565b60405180910390a35b50505050565b6112cd838383611732565b505050565b60007f8b73c3c69bb8fe3d512ecc4cf759cc79239f7b179b0ffacaa9a75d522b39400f7f00000000000000000000000000000000000000000000000000000000000000007f0000000000000000000000000000000000000000000000000000000000000000463060405160200161134d959493929190612167565b60405160208183030381529060405280519060200120905090565b611370610570565b6113a6576040517f8dfc202b00000000000000000000000000000000000000000000000000000000815260040160405180910390fd5b565b6113b0610570565b156113e7576040517fd93c066500000000000000000000000000000000000000000000000000000000815260040160405180910390fd5b565b606060ff60001b8314611406576113ff8361174a565b9050611493565b81805461141290612046565b80601f016020809104026020016040519081016040528092919081815260200182805461143e90612046565b801561148b5780601f106114605761010080835404028352916020019161148b565b820191906000526020600020905b81548152906001019060200180831161146e57829003601f168201915b505050505090505b92915050565b60006040517f190100000000000000000000000000000000000000000000000000000000000081528360028201528260228201526042812091505092915050565b60008060007f7fffffffffffffffffffffffffffffff5d576e7357a4501ddfe92f46681b20a08460001c111561151a5760006003859250925092506115c4565b60006001888888886040516000815260200160405260405161153f94939291906121ba565b6020604051602081039080840390855afa158015611561573d6000803e3d6000fd5b505050602060405103519050600073ffffffffffffffffffffffffffffffffffffffff168173ffffffffffffffffffffffffffffffffffffffff16036115b557600060016000801b935093509350506115c4565b8060008060001b935093509350505b9450945094915050565b600060038111156115e2576115e16121ff565b5b8260038111156115f5576115f46121ff565b5b031561172e576001600381111561160f5761160e6121ff565b5b826003811115611622576116216121ff565b5b03611659576040517ff645eedf00000000000000000000000000000000000000000000000000000000815260040160405180910390fd5b6002600381111561166d5761166c6121ff565b5b8260038111156116805761167f6121ff565b5b036116c5578060001c6040517ffce698f70000000000000000000000000000000000000000000000000000000081526004016116bc9190611c03565b60405180910390fd5b6003808111156116d8576116d76121ff565b5b8260038111156116eb576116ea6121ff565b5b0361172d57806040517fd78bce0c0000000000000000000000000000000000000000000000000000000081526004016117249190611cc1565b60405180910390fd5b5b5050565b61173a6113a8565b6117458383836117be565b505050565b60606000611757836119e3565b90506000602067ffffffffffffffff81111561177657611775612077565b5b6040519080825280601f01601f1916602001820160405280156117a85781602001600182028036833780820191505090505b5090508181528360208201528092505050919050565b600073ffffffffffffffffffffffffffffffffffffffff168373ffffffffffffffffffffffffffffffffffffffff1603611810578060026000828254611804919061225d565b925050819055506118e3565b60008060008573ffffffffffffffffffffffffffffffffffffffff1673ffffffffffffffffffffffffffffffffffffffff1681526020019081526020016000205490508181101561189c578381836040517fe450d38c00000000000000000000000000000000000000000000000000000000815260040161189393929190612130565b60405180910390fd5b8181036000808673ffffffffffffffffffffffffffffffffffffffff1673ffffffffffffffffffffffffffffffffffffffff16815260200190815260200160002081905550505b600073ffffffffffffffffffffffffffffffffffffffff168273ffffffffffffffffffffffffffffffffffffffff160361192c5780600260008282540392505081905550611979565b806000808473ffffffffffffffffffffffffffffffffffffffff1673ffffffffffffffffffffffffffffffffffffffff168152602001908152602001600020600082825401925050819055505b8173ffffffffffffffffffffffffffffffffffffffff168373ffffffffffffffffffffffffffffffffffffffff167fddf252ad1be2c89b69c2b068fc378daa952ba7f163c4a11628f55a4df523b3ef836040516119d69190611c03565b60405180910390a3505050565b60008060ff8360001c169050601f811115611a2a576040517fb3512b0c00000000000000000000000000000000000000000000000000000000815260040160405180910390fd5b80915050919050565b600081519050919050565b600082825260208201905092915050565b60005b83811015611a6d578082015181840152602081019050611a52565b60008484015250505050565b6000601f19601f8301169050919050565b6000611a9582611a33565b611a9f8185611a3e565b9350611aaf818560208601611a4f565b611ab881611a79565b840191505092915050565b60006020820190508181036000830152611add8184611a8a565b905092915050565b600080fd5b600073ffffffffffffffffffffffffffffffffffffffff82169050919050565b6000611b1582611aea565b9050919050565b611b2581611b0a565b8114611b3057600080fd5b50565b600081359050611b4281611b1c565b92915050565b6000819050919050565b611b5b81611b48565b8114611b6657600080fd5b50565b600081359050611b7881611b52565b92915050565b60008060408385031215611b9557611b94611ae5565b5b6000611ba385828601611b33565b9250506020611bb485828601611b69565b9150509250929050565b60008115159050919050565b611bd381611bbe565b82525050565b6000602082019050611bee6000830184611bca565b92915050565b611bfd81611b48565b82525050565b6000602082019050611c186000830184611bf4565b92915050565b600080600060608486031215611c3757611c36611ae5565b5b6000611c4586828701611b33565b9350506020611c5686828701611b33565b9250506040611c6786828701611b69565b9150509250925092565b600060ff82169050919050565b611c8781611c71565b82525050565b6000602082019050611ca26000830184611c7e565b92915050565b6000819050919050565b611cbb81611ca8565b82525050565b6000602082019050611cd66000830184611cb2565b92915050565b600060208284031215611cf257611cf1611ae5565b5b6000611d0084828501611b69565b91505092915050565b600060208284031215611d1f57611d1e611ae5565b5b6000611d2d84828501611b33565b91505092915050565b60007fff0000000000000000000000000000000000000000000000000000000000000082169050919050565b611d6b81611d36565b82525050565b611d7a81611b0a565b82525050565b600081519050919050565b600082825260208201905092915050565b6000819050602082019050919050565b611db581611b48565b82525050565b6000611dc78383611dac565b60208301905092915050565b6000602082019050919050565b6000611deb82611d80565b611df58185611d8b565b9350611e0083611d9c565b8060005b83811015611e31578151611e188882611dbb565b9750611e2383611dd3565b925050600181019050611e04565b5085935050505092915050565b600060e082019050611e53600083018a611d62565b8181036020830152611e658189611a8a565b90508181036040830152611e798188611a8a565b9050611e886060830187611bf4565b611e956080830186611d71565b611ea260a0830185611cb2565b81810360c0830152611eb48184611de0565b905098975050505050505050565b6000602082019050611ed76000830184611d71565b92915050565b611ee681611c71565b8114611ef157600080fd5b50565b600081359050611f0381611edd565b92915050565b611f1281611ca8565b8114611f1d57600080fd5b50565b600081359050611f2f81611f09565b92915050565b600080600080600080600060e0888a031215611f5457611f53611ae5565b5b6000611f628a828b01611b33565b9750506020611f738a828b01611b33565b9650506040611f848a828b01611b69565b9550506060611f958a828b01611b69565b9450506080611fa68a828b01611ef4565b93505060a0611fb78a828b01611f20565b92505060c0611fc88a828b01611f20565b91505092959891949750929550565b60008060408385031215611fee57611fed611ae5565b5b6000611ffc85828601611b33565b925050602061200d85828601611b33565b9150509250929050565b7f4e487b7100000000000000000000000000000000000000000000000000000000600052602260045260246000fd5b6000600282049050600182168061205e57607f821691505b60208210810361207157612070612017565b5b50919050565b7f4e487b7100000000000000000000000000000000000000000000000000000000600052604160045260246000fd5b600060c0820190506120bb6000830189611cb2565b6120c86020830188611d71565b6120d56040830187611d71565b6120e26060830186611bf4565b6120ef6080830185611bf4565b6120fc60a0830184611bf4565b979650505050505050565b600060408201905061211c6000830185611d71565b6121296020830184611d71565b9392505050565b60006060820190506121456000830186611d71565b6121526020830185611bf4565b61215f6040830184611bf4565b949350505050565b600060a08201905061217c6000830188611cb2565b6121896020830187611cb2565b6121966040830186611cb2565b6121a36060830185611bf4565b6121b06080830184611d71565b9695505050505050565b60006080820190506121cf6000830187611cb2565b6121dc6020830186611c7e565b6121e96040830185611cb2565b6121f66060830184611cb2565b95945050505050565b7f4e487b7100000000000000000000000000000000000000000000000000000000600052602160045260246000fd5b7f4e487b7100000000000000000000000000000000000000000000000000000000600052601160045260246000fd5b600061226882611b48565b915061227383611b48565b925082820190508082111561228b5761228a61222e565b5b9291505056fea26469706673582212209284f14032f2299966132a8f6677b535eea97138829636fc59396aa95c3c745164736f6c63430008180033a26469706673582212202871979b7f07deb89f8671df7a06e81bcb1b4f93c1833d2861f1d836fee495dd64736f6c63430008180033",
  "linkReferences": {},
  "deployedLinkReferences": {}
}